-------------------------- Point 1 ------------------------------
---------- getblock by hash: 0000000000000000000285f2233538754a9d409e939c5800ba8f88862fdc55e5 ---------
{
  "hash": "0000000000000000000285f2233538754a9d409e939c5800ba8f88862fdc55e5",
  "confirmations": 11,
  "height": 839857,
  "version": 570425344,
  "versionHex": "22000000",
  "merkleroot": "9ad1a5c47c052c17d1096f5c2a47778396144ca77abba3c891ccbb24bcbab17b",
  "time": 1713489354,
  "mediantime": 1713487010,
  "nonce": 1700823794,
  "bits": "17034219",
  "difficulty": 86388558925171.02,
  "chainwork": "0000000000000000000000000000000000000000750ff704bfa1a0d0e53bb2c6",
  "nTx": 1121,
  "previousblockhash": "00000000000000000000d10e1ee5bf46d9edcc9a3107ab459ce52eb353f72091",
  "strippedsize": 709291,
  "size": 1865466,
  "weight": 3993339,
  "tx": [
    "679ee41c19d232e7a183bfe57e9ceb284761968185cf89998633a66e15f707c6",
    "e4cc00ae0a1d90a045143ff1931a6d52f4ef630b5b12ab3d9c3b75fd7851e455",
    "6d9cfa2e58138c593e90aaf80e4785d46d5c471fbf87a695a4d37a6b0e94dbdc",
    "325ef032c76bdce7230d1124022667a9df8564343bf4e45fdb62ee6b70d33b0b",
    "55a903b3bc5d3e36000e7f7cb0f47a858eee21c52f46ee2e91c861071a071112",
    "e9ab8a71f283eccb18ca7dfcfec66bfb3d68378f22448dcd11691b01d129bc2c",
    "b8eea223d893d9f00aaa2e1ac1d4adc8a2c138c3820512ffee5dee427e4cdc2e",
    "d97909304bd525278ae99dc232c7e6361acd85f5fa1ffbf0b7837e152f97c44c",
    "07e08ff2deee18f17eddabcb5fad64b349833f517af6f766aaa473b59e49ba59",
    "5b4fbbe9bbcf93f4edbbdb23d6a914f05f25aa5338c66d52f949e056cccd175d",
    "6a0831e5dc08ac70bb19dc545d39ccfb326d30a3738e1937730f2b7e5acf687f",
    "523296e9a60840fb57ae141c37682c5a91cb0ee8256573881687b15833e7e78c",
    "68e18cfcbba1c584a12733ec61b64987a375c1148ca531baa8741e0ce7333eae",
    .............................
--------------------------------省略1100行----------------------------------------------------------------
  ]
}
----------- get a sample transaction such as block.Tx[2] -----------
{
  "txid": "6d9cfa2e58138c593e90aaf80e4785d46d5c471fbf87a695a4d37a6b0e94dbdc",
  "hash": "6d9cfa2e58138c593e90aaf80e4785d46d5c471fbf87a695a4d37a6b0e94dbdc",
  "version": 2,
  "size": 1628,
  "vsize": 1628,
  "weight": 6512,
  "locktime": 0,
  "vin": [
    {
      "txid": "76996ad87bb75908f868b6e967a20a7a0d3a8cdac9b86069b7e7532292a2bd23",
      "vout": 0,
      "scriptSig": {
        "asm": "3044022002634ec5e0d029cba131575b3112fc439f869b940df65e1da6ae3f3187f07d7f02204138740b8b914e3c78bd831799a340a09376425f17f2b95bf2a29b8aef6728ac[ALL] 031277e88390c528ef8efac312d77d0566f756ed54046b8ba557a15b088b86e20b",
        "hex": "473044022002634ec5e0d029cba131575b3112fc439f869b940df65e1da6ae3f3187f07d7f02204138740b8b914e3c78bd831799a340a09376425f17f2b95bf2a29b8aef6728ac0121031277e88390c528ef8efac312d77d0566f756ed54046b8ba557a15b088b86e20b"
      },
      "sequence": 4294967295
    },
    {
      "txid": "f30d2f736eaeec761d11e9ac31f2ef06954ce96697a0289b89b1a17b0334d234",
      "vout": 0,
      "scriptSig": {
        "asm": "304402202f34266b064da85f528dba2f7ad36fed8b9588f679adc8f57892de23f86d589f02207af5e6841551be1e88d21d75a5507162b4240201f987009d75c144b34a035b04[ALL] 031277e88390c528ef8efac312d77d0566f756ed54046b8ba557a15b088b86e20b",
        "hex": "47304402202f34266b064da85f528dba2f7ad36fed8b9588f679adc8f57892de23f86d589f02207af5e6841551be1e88d21d75a5507162b4240201f987009d75c144b34a035b040121031277e88390c528ef8efac312d77d0566f756ed54046b8ba557a15b088b86e20b"
      },
      "sequence": 4294967295
    },
    .....
-----------------------------略8个--------------------------------------
  ],
  "vout": [
    {
      "value": 5,
      "n": 0,
      "scriptPubKey": {
        "asm": "OP_DUP OP_HASH160 a0f49d784f729db16fe2cd3944bc14bd7e69c088 OP_EQUALVERIFY OP_CHECKSIG",
        "desc": "addr(1Fg49rFaeGsQe23UkKCJVKExK2twt9JJ8P)#vtmhqd5h",
        "hex": "76a914a0f49d784f729db16fe2cd3944bc14bd7e69c08888ac",
        "address": "1Fg49rFaeGsQe23UkKCJVKExK2twt9JJ8P",
        "type": "pubkeyhash"
      }
    },
    {
      "value": 5,
      "n": 1,
      "scriptPubKey": {
        "asm": "OP_DUP OP_HASH160 90edd186fd605de7a370e56ffa5b07487ae634f2 OP_EQUALVERIFY OP_CHECKSIG",
        "desc": "addr(1EDKCYLWsqGP8FAdDgrhV7Vqyjo7EVPFEV)#kujap80c",
        "hex": "76a91490edd186fd605de7a370e56ffa5b07487ae634f288ac",
        "address": "1EDKCYLWsqGP8FAdDgrhV7Vqyjo7EVPFEV",
        "type": "pubkeyhash"
      }
    },
    .....
-----------------------------略11个-----------------------------------
  ],
  "hex": "020000000823bda2922253e7b76960b8c9da8c3a0d7a0aa267e9b668f80859b77bd86a9976000000006a473044022002634ec5e0d029cba131575b3112fc439f869b940df65e1da6ae3f3187f07d7f02204138740b8b914e3c78bd831799a340a09376425f17f2b95bf2a29b8aef6728ac0121031277e88390c528ef8efac312d77d0566f756ed54046b8ba557a15b088b86e20bffffffff34d234037ba1b1899b28a09766e94c9506eff231ace9111d76ecae6e732f0df3000000006a47304402202f34266b064da85f528dba2f7ad36fed8b9588f679adc8f57892de23f86d589f02207af5e6841551be1e88d21d75a5507162b4240201f987009d75c144b34a035b040121031277e88390c528ef8efac312d77d0566f756ed54046b8ba557a15b088b86e20bffffffff6baaa4eefaf2a9951e5a57673671950c02078f6c803f9e55fb8c9530654e1fa1000000006a47304402207cae05e7159b40ac304d728b54196640eaeccfd8f8952c1bdc34df8c61988d9e0220296877eaa89ea44c194ed241e2d0223babc9e29c0aad54f6237adabbf6907efa0121031277e88390c528ef8efac312d77d0566f756ed54046b8ba557a15b088b86e20bffffffffc1156e3751e15e485c2c6baddb4536d841b3ee33adb3fbacd385cba7957bc870000000006a47304402202760dca13f7033cecc34653c0c0afbc9630150c86222d3cb4b072628a4320c8f022020e42c5bf9e3911948b085d84a51bc357134e98fe1526f8b22137f20d7b85d030121031277e88390c528ef8efac312d77d0566f756ed54046b8ba557a15b088b86e20bffffffffcf5a72b6e4c0b66ecc840ec546645565a38783af6af353c9d1f796c231460e88000000006a47304402205c58573890d98fbc7630898430596a8e50717f8ca7fe10117cb3c8478094b29202206a702a80b3e015661922915aab927a860efc096d2de77e4a7d76a06dd31820600121031277e88390c528ef8efac312d77d0566f756ed54046b8ba557a15b088b86e20bffffffffd55ddecc6be610f294f0c4251737e7f26e810134e5a832a6cd66aecfe25dc890000000006a47304402203a9fabe253eadea07d876a6fe6cf27537f7d36f3e9a84d355d4d016d8034c161022062f96a1854c34cee4646b1d9a52575fde9c13280b7fa72446eb6653abc9b278e0121031277e88390c528ef8efac312d77d0566f756ed54046b8ba557a15b088b86e20bffffffffd5c2d0a126935d0d5e906982f7480c28afe58de30d1d6d52cbbc959764489d67000000006a473044022078897a2bcd1be0c5be90da37e6d493cb62dba1866e6b00ad378ade762908a9a9022047d6bf2ab76e2411d53d976353bace49b87101460bf667a8bbf190df62dfdda40121031277e88390c528ef8efac312d77d0566f756ed54046b8ba557a15b088b86e20bfffffffffecb01ec4cc352ab1e8c1fc662ab88f8c92b47f3d12a9915c9285317a1d18163000000006a473044022006bce54195ba345199d61571e3ddc0e8a90f3398064d111e9fb272890754950802204037a14e6fd7c246c502518303d51680a409c582ffebd0c510d0ae918c6d14060121031277e88390c528ef8efac312d77d0566f756ed54046b8ba557a15b088b86e20bffffffff0d0065cd1d000000001976a914a0f49d784f729db16fe2cd3944bc14bd7e69c08888ac0065cd1d000000001976a91490edd186fd605de7a370e56ffa5b07487ae634f288ac0065cd1d000000001976a914bd7c2ec8c86c50b99feec186dc1c0bf5cec8690888ac0065cd1d000000001976a914e8fe70663e790ffe32551fef3b2108d9972bae3588ac0065cd1d000000001976a914f04f8d5d7234d26c41b5e65adcb0298dc323025d88ac0065cd1d000000001976a914991ae9e841c55d23be1bff54752c744aed6b818788ac0065cd1d000000001976a91477610f69f3179cbe1218d4717215e9e7a64305aa88ac0065cd1d000000001976a914060b4cce7454b5938abb68b8e2e7fcf2dfee819388ac0065cd1d000000001976a914269f5effb08c1a6a72edcb7241e7ec3cec682a1a88ac0065cd1d000000001976a914a86620a92df38c88fa3d1ece20a3d61ad864ed5188ac0065cd1d000000001976a914c773204eee6e22e98ece837bef5ae0c582d317d288acd3106402000000001976a91411e85e1601dc97a8fb60dc9e3fcd5012ba2c404188acb0169800000000001976a91428d16b995124a203b6b7355f6f72aeacbc05e3ab88ac00000000",
  "blockhash": "0000000000000000000285f2233538754a9d409e939c5800ba8f88862fdc55e5",
  "confirmations": 11,
  "time": 1713489354,
  "blocktime": 1713489354
}
----------- parse transaction ---------
txhash: 6d9cfa2e58138c593e90aaf80e4785d46d5c471fbf87a695a4d37a6b0e94dbdc
----Inputs----
Address:18cBEMRxXHqzWWCxZNtU91F5sbUNKhL5PX | amount：6.80164226 BTC
Address:18cBEMRxXHqzWWCxZNtU91F5sbUNKhL5PX | amount：6.88937667 BTC
Address:18cBEMRxXHqzWWCxZNtU91F5sbUNKhL5PX | amount：7.24976085 BTC
Address:18cBEMRxXHqzWWCxZNtU91F5sbUNKhL5PX | amount：6.81283960 BTC
Address:18cBEMRxXHqzWWCxZNtU91F5sbUNKhL5PX | amount：6.82164859 BTC
Address:18cBEMRxXHqzWWCxZNtU91F5sbUNKhL5PX | amount：7.48675428 BTC
Address:18cBEMRxXHqzWWCxZNtU91F5sbUNKhL5PX | amount：6.71178732 BTC
Address:18cBEMRxXHqzWWCxZNtU91F5sbUNKhL5PX | amount：6.72731382 BTC
----Outputs----
Adress:1Fg49rFaeGsQe23UkKCJVKExK2twt9JJ8P | amount：5.00000000 BTC
Adress:1EDKCYLWsqGP8FAdDgrhV7Vqyjo7EVPFEV | amount：5.00000000 BTC
Adress:1JGuUdEipRgkCuwh6UNYGrp94g3GCtfAo1 | amount：5.00000000 BTC
Adress:1NExaEwzEGiwsZsWyeRDR2H4yD4xADCb4d | amount：5.00000000 BTC
Adress:1NueURZqL4heoqLsoW9h4sZiPtaWXEtDHQ | amount：5.00000000 BTC
Adress:1ExYdM7PnvrMBsV1QyVdswiFdYdcUrD79f | amount：5.00000000 BTC
Adress:1BtDggzNL1zPLfVbuGvE3oKMzpTLeo5X5b | amount：5.00000000 BTC
Adress:1YxbHrFDVkQh8jNt2ppKwu7kgrPJ5XxLL | amount：5.00000000 BTC
Adress:14XDbb3ViUvtmhAKBtpqfRL4LsCZfRKYkz | amount：5.00000000 BTC
Adress:1GMQsBDyidzMGRNgb8WpVPh8fjwvZJeWAS | amount：5.00000000 BTC
Adress:1KBbPHRadnYYZuAwrKg7Ao71Y1J3uv8D9W | amount：5.00000000 BTC
Adress:12dgrSW5uVJyNjJpwPVN1ESkLeRNcLkvAJ | amount：0.40112339 BTC
Adress:14ipuTBFEsZgxkDXbM1caht5m7fyTtjbGX | amount：0.09967280 BTC
-----Total-----
totalIn: 55.50112339 BTC 
totalOut: 55.50079619 BTC 
txfee: 0.00032720 BTC
